:020000040800F2
:1000000000280020B11C0008691B00086F1B0008B5
:10001000751B00087B1B0008811B00080000000006
:10002000000000000000000000000000871B000826
:10003000931B0008000000009F1B0008AB1B00087A
:10004000F91C0008F91C0008F91C0008F91C00083C
:10005000F91C0008F91C0008F91C0008F91C00082C
:10006000F91C0008F91C0008F91C0008F91C00081C
:10007000F91C0008F91C0008F91C0008F91C00080C
:10008000F91C0008F91C0008F91C0008F91C0008FC
:10009000F91C0008F91C0008F91C0008F91C0008EC
:1000A000F91C0008F91C0008F91C0008F91C0008DC
:1000B000B91B0008F91C000800000000F91C00082A
:1000C000F91C00080000000000000000F91C0008F6
:1000D00000000000F91C0008F91C000800000000E6
:1000E000F91C0008F91C0008F91C000800000000B9
:1000F0000000000000000000000000000000000000
:0C01000000000000000000005FF808F1A3
:10010C0010B5054C237833B9044B13B10448AFF345
:10011C0000800123237010BD5C0000200000000053
:10012C002833000808B5034B1BB103490348AFF350
:10013C00008008BD0000000060000020283300088B
:10014C0080B582B000AF78607B68022B16D07B68DC
:10015C00022B1ADC7B68002B03D07B68012B06D0AA
:10016C0013E080210B4802F0ADF803460EE04FF48B
:10017C008071084802F0A6F8034607E04FF40071BE
:10018C00044802F09FF8034600E0012318460837A4
:10019C00BD4680BD0008014080B483B000AF7860DC
:1001AC00094A7B6852F82330012B06D1064A7B683A
:1001BC00002142F82310012300E0002318460C37DD
:1001CC00BD4680BC704700BF7800002080B582B06F
:1001DC0000AF7860334A7B6852F8232032497B6841
:1001EC0041F82320314A7B6852F823202D497B6843
:1001FC0041F823207868FFF7A3FF034619462B4AE2
:10020C007B6842F82310284A7B6852F82320254942
:10021C007B6851F823309A423FD1224A7B6852F8CE
:10022C00232022497B6851F823309A4235D11F4A4A
:10023C007B6852F823201E497B6851F823309A4280
:10024C0017D01A4A7B6852F8232019497B6841F869
:10025C002320164A7B6852F82330002B1DD1154AF7
:10026C007B68012142F82310C821786801F0E0FB7B
:10027C0013E0786801F0F4FB0F4A7B6852F82330E6
:10028C00012B0AD1094A7B6852F82330002B04D188
:10029C00074A7B68012142F8231000BF0837BD468E
:1002AC0080BD00BF0C0000200000002018000020C2
:1002BC0024000020780000201801002080B500AF39
:1002CC00534B1B68013B032B00F2968001A252F8A2
:1002DC0023F000BFF10200082D030008750300088D
:1002EC00BD030008002001F071FC002001F080FC2F
:1002FC00002001F08FFC464B02221A60454B1B6814
:10030C001946032001F094FB424B1B68424A82FBC6
:10031C0003125211DB17D31A184601F023F974E0BB
:10032C00012001F053FC002001F062FC002001F0E0
:10033C0071FC01F09BF9394BDB68012B60D1344B1C
:10034C0004221A60364B1B681946032001F070FB1F
:10035C00334B1B68304A82FB03125211DB17D31A42
:10036C00184601F0FFF84BE0002001F02FFC0120B3
:10037C0001F03EFC002001F04DFC01F077F9274B19
:10038C00DB68012B3ED1224B02221A60214B1B68E9
:10039C001946032001F04CFB1E4B1B681E4A82FBC6
:1003AC0003125211DB17D31A184601F0DBF829E0BF
:1003BC00002001F00BFC002001F01AFC012001F0E0
:1003CC0029FC01F053F9154BDB68012B1CD1104BA8
:1003DC0003221A60134B1B681946032001F028FBFB
:1003EC00104B1B680C4A82FB03125211DB17D31AF9
:1003FC00184601F0B7F807E0054B01221A6004E03B
:10040C0000BF02E000BF00E000BF00BF80BD00BF26
:10041C0084000020300000201F85EB5118010020C3
:10042C00380000203400002080B500AF534B1B680F
:10043C00013B032B00F2968001A252F823F000BF7F
:10044C005D04000899040008E1040008290500086F
:10045C00002001F0F1FB002001F000FC002001F075
:10046C000FFC464B04221A60454B1B6819460420AE
:10047C0001F0DEFA424B1B68424A82FB0312521116
:10048C00DB17D31A184601F0AFF874E0012001F025
:10049C00D3FB002001F0E2FB002001F0F1FB01F0A6
:1004AC002FF9394B1B69012B60D1344B04221A6094
:1004BC00334B1B681946042001F0BAFA304B1B6809
:1004CC00304A82FB03125211DB17D31A184601F083
:1004DC008BF84BE0002001F0AFFB012001F0BEFBDC
:1004EC00002001F0CDFB01F00BF9274B1B69012B10
:1004FC003ED1224B02221A60244B1B681946042061
:10050C0001F096FA214B1B681E4A82FB0312521112
:10051C00DB17D31A184601F067F829E0002001F028
:10052C008BFB002001F09AFB012001F0A9FB01F0EC
:10053C00E7F8154B1B69012B1CD1104B03221A60D9
:10054C00134B1B681946042001F072FA104B1B6800
:10055C000C4A82FB03125211DB17D31A184601F016
:10056C0043F807E0054B01221A6004E000BF02E0EB
:10057C0000BF00E000BF00BF80BD00BF88000020AE
:10058C00380000201F85EB5118010020300000209E
:10059C003400002080B500AF9D4B1B680A3B042B38
:1005AC0000F25F8201A252F823F000BFCD050008D3
:1005BC00F70500082906000883070008170900083A
:1005CC00944B1B68944A1360944B1B68944A1360B9
:1005DC00944B1B68944A1360944B01221A60944B01
:1005EC0001221A608A4B0B221A60002000F076FC64
:1005FC00002000F0ADFDFFF761FEFFF715FF0020B6
:10060C00FFF7CAFD0346012B40F02F82804B0C22D2
:10061C001A601921072001F00BFA26E2022000F0E3
:10062C0041FA022000F04CFB7B4B1B68814A82FB99
:10063C0003129211DB17D31A184600F04FFC764BBD
:10064C001B687D4A82FB03125211DB17D21A7B4BBB
:10065C0083FB02139910D317C91A0B469B000B444A
:10066C005B00D11A084600F073FD754BDB69012B5A
:10067C003CD1744B1B68002B1CD1012001F0A6FA55
:10068C00012001F0D9FA002001F0B2FA002001F0AB
:10069C00E5FA002001F0BEFA002001F0F1FA192170
:1006AC00072001F0C5F9674B1B68C3F10103654ACC
:1006BC0013601BE0002001F089FA002001F0BCFA65
:1006CC00002001F095FA002001F0C8FA002001F09A
:1006DC00A1FA002001F0D4FA1921072001F0A8F9A1
:1006EC00584B1B68C3F10103564A13600120FFF7F6
:1006FC0053FD0346012B25D1474B1B686433464AF7
:10070C001360454B1B684B4A82FB03129211DB179B
:10071C00D31A184600F0E2FB3F4B1B68464A82FB9B
:10072C0003125211DB17D21A444B83FB021399109C
:10073C00D317C91A0B469B000B445B00D11A084611
:10074C0000F006FD0220FFF727FD0346012B03D125
:10075C00314B1B682F4A13600020FFF71DFD034629
:10076C00012B40F084812B4B1B682B4A1360284BC8
:10077C000D221A607BE1032000F094F9032000F0B5
:10078C009FFA274B1B682B4A82FB03129211DB1733
:10079C00D31A184600F0A2FB214B1B68264A82FB99
:1007AC0003125211DB17D21A244B83FB021399103C
:1007BC00D317C91A0B469B000B445B00D11A084691
:1007CC0000F0C6FC1E4BDB69012B59D11D4B1B687D
:1007DC00002B39D1002001F0F9F9002001F02CFA9E
:1007EC00012001F005FA012001F038FA002001F097
:1007FC0011FA002001F044FA1921072001F018F930
:10080C00104B1B68C3F101030E4A136038E000BFA4
:10081C008C000020300000203C0000203400002020
:10082C0040000020380000204400002084000020FC
:10083C0088000020D34D62101F85EB5167666666F9
:10084C001801002090000020002001F0BFF90020CA
:10085C0001F0F2F9002001F0CBF9002001F0FEF9D3
:10086C00002001F0D7F9002001F00AFA1921072025
:10087C0001F0DEF8814B1B68C3F101037F4A136062
:10088C000120FFF789FC0346012B25D17C4B1B680B
:10089C0064337B4A13607A4B1B687A4A82FB0312DF
:1008AC009211DB17D31A184600F018FB744B1B6817
:1008BC00754A82FB03125211DB17D21A734B83FB5E
:1008CC0002139910D317C91A0B469B000B445B00FB
:1008DC00D11A084600F03CFC0220FFF75DFC0346F1
:1008EC00012B03D1664B1B68694A13600020FFF78C
:1008FC0053FC0346012B40F0BC80654B1B68604ADF
:10090C001360644B0E221A60B3E0042000F0CAF8A6
:10091C00042000F0D5F9604B1B685A4A82FB031285
:10092C009211DB17D31A184600F0D8FA5A4B1B68F1
:10093C00554A82FB03125211DB17D21A534B83FB1D
:10094C0002139910D317C91A0B469B000B445B007A
:10095C00D11A084600F0FCFB504BDB69012B3CD153
:10096C00464B1B68002B1CD1002001F02FF90020F6
:10097C0001F062F9002001F03BF9002001F06EF962
:10098C00012001F047F9012001F07AF91921072023
:10099C0001F04EF8394B1B68C3F10103374A136061
:1009AC001BE0002001F012F9002001F045F90020B5
:1009BC0001F01EF9002001F051F9002001F02AF994
:1009CC00002001F05DF91921072001F031F82B4BC3
:1009DC001B68C3F10103294A13600120FFF7DCFBFC
:1009EC000346012B25D12C4B1B6864332A4A136018
:1009FC00294B1B68234A82FB03129211DB17D31A73
:100A0C00184600F06BFA244B1B681F4A82FB03123A
:100A1C005211DB17D21A1D4B83FB02139910D317FB
:100A2C00C91A0B469B000B445B00D11A084600F018
:100A3C008FFB0220FFF7B0FB0346012B03D1164BB3
:100A4C001B68174A13600020FFF7A6FB0346012B17
:100A5C0011D1134B1B68104A13600E4B0A221A60FB
:100A6C0009E00C4B0A221A6006E000BF04E000BF4C
:100A7C0002E000BF00E000BF00BF80BD900000207E
:100A8C0040000020D34D62101F85EB5167666666EF
:100A9C00340000208C0000204400002018010020AD
:100AAC003800002080B582B000AF78607B68092BDD
:100ABC0000F2EA8001A252F823F000BFF10A00080C
:100ACC001B0B0008450B00086F0B0008990B000866
:100ADC00C30B0008ED0B0008170C0008410C0008B4
:100AEC006B0C000800220121744801F002FC00226A
:100AFC000221724801F0FDFB002204216F4801F035
:100B0C00F8FB002208216D4801F0F3FBD1E0012233
:100B1C0001216A4801F0EDFB00220221674801F037
:100B2C00E8FB00220421654801F0E3FB00220821C8
:100B3C00624801F0DEFBBCE0002201215F4801F0BD
:100B4C00D8FB012202215D4801F0D3FB00220421D5
:100B5C005A4801F0CEFB00220821584801F0C9FB8D
:100B6C00A7E001220121554801F0C3FB012202211B
:100B7C00524801F0BEFB00220421504801F0B9FBA1
:100B8C00002208214D4801F0B4FB92E00022012123
:100B9C004A4801F0AEFB00220221484801F0A9FBB3
:100BAC0001220421454801F0A4FB002208214348FE
:100BBC0001F09FFB7DE001220121404801F099FBEF
:100BCC00002202213D4801F094FB012204213B4804
:100BDC0001F08FFB00220821384801F08AFB68E005
:100BEC0000220121354801F084FB01220221334807
:100BFC0001F07FFB01220421304801F07AFB002236
:100C0C0008212E4801F075FB53E0012201212B48ED
:100C1C0001F06FFB01220221284801F06AFB01223E
:100C2C000421264801F065FB00220821234801F02D
:100C3C0060FB3EE000220121204801F05AFB00221B
:100C4C0002211E4801F055FB002204211B4801F033
:100C5C0050FB01220821194801F04BFB29E001222D
:100C6C000121164801F045FB00220221134801F036
:100C7C0040FB00220421114801F03BFB012208211A
:100C8C000E4801F036FB14E0002201210B4801F064
:100C9C0030FB00220221094801F02BFB0022042129
:100CAC00064801F026FB00220821044801F021FB34
:100CBC0000BF00BF0837BD4680BD00BF000C01401F
:100CCC0080B582B000AF78607B68092B00F2EA80B7
:100CDC0001A252F823F000BF0D0D0008370D0008DB
:100CEC00610D00088B0D0008B50D0008DF0D000824
:100CFC00090E0008330E00085D0E0008870E000870
:100D0C0000221021744801F0F4FA002220217248CC
:100D1C0001F0EFFA002240216F4801F0EAFA0022BC
:100D2C0080216D4801F0E5FAD1E0012210216A48DA
:100D3C0001F0DFFA00222021674801F0DAFA0022E4
:100D4C004021654801F0D5FA00228021624801F06B
:100D5C00D0FABCE0002210215F4801F0CAFA01224F
:100D6C0020215D4801F0C5FA002240215A4801F0CB
:100D7C00C0FA00228021584801F0BBFAA7E00122FA
:100D8C001021554801F0B5FA01222021524801F0FA
:100D9C00B0FA00224021504801F0ABFA0022802129
:100DAC004D4801F0A6FA92E0002210214A4801F0C9
:100DBC00A0FA00222021484801F09BFA0122402190
:100DCC00454801F096FA00228021434801F091FA3F
:100DDC007DE001221021404801F08BFA00222021F5
:100DEC003D4801F086FA012240213B4801F081FA8E
:100DFC0000228021384801F07CFA68E000221021A2
:100E0C00354801F076FA01222021334801F071FABD
:100E1C0001224021304801F06CFA002280212E483A
:100E2C0001F067FA53E0012210212B4801F061FA1E
:100E3C0001222021284801F05CFA01224021264899
:100E4C0001F057FA00228021234801F052FA3EE0CB
:100E5C0000221021204801F04CFA002220211E48CB
:100E6C0001F047FA002240211B4801F042FA01220E
:100E7C008021194801F03DFA29E001221021164881
:100E8C0001F037FA00222021134801F032FA002237
:100E9C004021114801F02DFA012280210E4801F069
:100EAC0028FA14E0002210210B4801F022FA00224B
:100EBC002021094801F01DFA00224021064801F0CA
:100ECC0018FA00228021044801F013FA00BF00BF79
:100EDC000837BD4680BD00BF000C014080B582B014
:100EEC0000AF78607B68092B00F2128101A252F8E6
:100EFC0023F000BF290F00085B0F00088D0F0008BE
:100F0C00BF0F0008F10F000823100008551000084F
:100F1C0087100008B9100008EB10000800224FF4ED
:100F2C0080718A4801F0E5F900224FF4007187487E
:100F3C0001F0DFF900224FF48061844801F0D9F907
:100F4C0000224FF40061814801F0D3F9F9E001224D
:100F5C004FF480717D4801F0CCF900224FF4007100
:100F6C007A4801F0C6F900224FF48061774801F00D
:100F7C00C0F900224FF40061744801F0BAF9E0E0C6
:100F8C0000224FF48071714801F0B3F901224FF443
:100F9C0000716E4801F0ADF900224FF480616B488E
:100FAC0001F0A7F900224FF40061684801F0A1F9A3
:100FBC00C7E001224FF48071644801F09AF90122D4
:100FCC004FF40071614801F094F900224FF48061F4
:100FDC005E4801F08EF900224FF400615B4801F08D
:100FEC0088F9AEE000224FF48071584801F081F985
:100FFC0000224FF40071554801F07BF901224FF4A7
:10100C008061524801F075F900224FF400614F489D
:10101C0001F06FF995E001224FF480714B4801F01B
:10102C0068F900224FF40071484801F062F901227E
:10103C004FF48061454801F05CF900224FF40061E7
:10104C00424801F056F97CE000224FF480713F4891
:10105C0001F04FF901224FF400713C4801F049F9BD
:10106C0001224FF48061394801F043F900224FF41A
:10107C000061364801F03DF963E001224FF48071C4
:10108C00324801F036F901224FF400712F4801F07B
:10109C0030F901224FF480612C4801F02AF900222A
:1010AC004FF40061294801F024F94AE000224FF482
:1010BC008071264801F01DF900224FF4007123487D
:1010CC0001F017F900224FF48061204801F011F96A
:1010DC0001224FF400611D4801F00BF931E00122AF
:1010EC004FF48071194801F004F900224FF400719B
:1010FC00164801F0FEF800224FF48061134801F00D
:10110C00F8F801224FF40061104801F0F2F818E0F1
:10111C0000224FF480710D4801F0EBF800224FF4DF
:10112C0000710A4801F0E5F800224FF4806107488D
:10113C0001F0DFF800224FF40061044801F0D9F807
:10114C0000BF00BF0837BD4680BD00BF000C01408A
:10115C0080B582B000AF78607B68092B00F21281F9
:10116C0001A252F823F000BF9D110008CF11000816
:10117C0001120008331200086512000897120008CB
:10118C00C9120008FB1200082D1300085F13000899
:10119C0000224FF480518A4801F0ABF800224FF442
:1011AC000051874801F0A5F800224FF48041844893
:1011BC0001F09FF800224FF40041814801F099F8AA
:1011CC00F9E001224FF480517D4801F092F80022A1
:1011DC004FF400517A4801F08CF800224FF4804112
:1011EC00774801F086F800224FF40041744801F072
:1011FC0080F8E0E000224FF48051714801F079F85A
:10120C0001224FF400516E4801F073F800224FF4A4
:10121C0080416B4801F06DF800224FF400416848A2
:10122C0001F067F8C7E001224FF48051644801F0E7
:10123C0060F801224FF40051614801F05AF8002285
:10124C004FF480415E4801F054F800224FF4004105
:10125C005B4801F04EF8AEE000224FF48051584844
:10126C0001F047F800224FF40051554801F041F8C5
:10127C0001224FF48041524801F03BF800224FF418
:10128C0000414F4801F035F895E001224FF48051B0
:10129C004B4801F02EF800224FF40051484801F061
:1012AC0028F801224FF48041454801F022F8002231
:1012BC004FF40041424801F01CF87CE000224FF44E
:1012CC0080513F4801F015F801224FF400513C4881
:1012DC0001F00FF801224FF48041394801F009F870
:1012EC0000224FF40041364801F003F863E001227C
:1012FC004FF48051324800F0FCFF01224FF40051B2
:10130C002F4800F0F6FF01224FF480412C4800F0EA
:10131C00F0FF00224FF40041294800F0EAFF4AE0B8
:10132C0000224FF48051264800F0E3FF00224FF4D6
:10133C000051234800F0DDFF00224FF4804120488B
:10134C0000F0D7FF01224FF400411D4800F0D1FFFF
:10135C0031E001224FF48051194800F0CAFF0022FD
:10136C004FF40051164800F0C4FF00224FF48041A6
:10137C00134800F0BEFF01224FF40041104800F06A
:10138C00B8FF18E000224FF480510D4800F0B1FF77
:10139C0000224FF400510A4800F0ABFF00224FF43A
:1013AC008041074800F0A5FF00224FF4004104489B
:1013BC0000F09FFF00BF00BF0837BD4680BD00BFD7
:1013CC00000C014080B500AF2C4B1B6A012B53D194
:1013DC002B4B1B68012B28D1294B00221A60294B5F
:1013EC0001221A60264B1B68DBB21A464FF40061CF
:1013FC00254800F07EFF234B1B68DBB21A464FF4E6
:10140C008051214800F075FF204B1A68204B83FB5C
:10141C0002139910D317C91A0B469B000B445B009F
:10142C00D11A0846FFF73EFB22E0154B01221A6049
:10143C00144B00221A60124B1B68DBB21A464FF495
:10144C000061114800F055FF0E4B1B68DBB21A46C9
:10145C004FF480510C4800F04CFF0C4B1B680C4AAD
:10146C0082FB03129210DB17D31A1846FFF71AFBF4
:10147C000A21082000F0DCFA00BF80BD1801002012
:10148C009C0000204800002000080140940000202F
:10149C006766666680B500AF2C4B5B6A012B53D137
:1014AC002B4B1B68012B28D1294B00221A60294B8E
:1014BC0001221A60264B1B68DBB21A464FF400510E
:1014CC00254800F016FF234B1B68DBB21A464FF47D
:1014DC008041214800F00DFF204B1A68204B83FB04
:1014EC0002139910D317C91A0B469B000B445B00CF
:1014FC00D11A0846FFF7E4FB22E0154B01221A60D3
:10150C00144B00221A60124B1B68DBB21A464FF4C4
:10151C000051114800F0EDFE0E4B1B68DBB21A4671
:10152C004FF480410C4800F0E4FE0C4B1B680C4A55
:10153C0082FB03129210DB17D31A1846FFF7C0FB7D
:10154C000A21092000F074FA00BF80BD18010020A8
:10155C00A00000204C000020000801409800002052
:10156C006766666680B582B000AF7860194A7B68A2
:10157C001360194B00221A60184B01221A60164B8B
:10158C001B68DBB21A464FF40061154800F0B1FE3F
:10159C00124B1B68DBB21A464FF48051104800F016
:1015AC00A8FE0C4B1A680F4B83FB02139910D31730
:1015BC00C91A0B469B000B445B00D11A0846FFF777
:1015CC0071FA6421052000F033FA00BF0837BD46DC
:1015DC0080BD00BF940000209C000020480000202B
:1015EC00000801406766666680B582B000AF78601F
:1015FC00194A7B681360194B00221A60184B0122A0
:10160C001A60164B1B68DBB21A464FF40051154892
:10161C0000F06FFE124B1B68DBB21A464FF4804190
:10162C00104800F066FE0C4B1A680F4B83FB02133C
:10163C009910D317C91A0B469B000B445B00D11AA7
:10164C000846FFF73DFB6421062000F0F1F900BFCE
:10165C000837BD4680BD00BF98000020A0000020C8
:10166C004C000020000801406766666680B500AF3C
:10167C00FFF7A8FE1C4B5B69012B33D11B4B1B687E
:10168C00013B1A4A13606421052000F0D1F9184B74
:10169C0000221A60174B01221A60154B1B68DBB233
:1016AC001A464FF40061144800F023FE114B1B68DE
:1016BC00DBB21A464FF480510F4800F01AFE0B4B68
:1016CC001A680E4B83FB02139910D317C91A0B46D9
:1016DC009B000B445B00D11A0846FFF7E3F9044B5F
:1016EC0000221A6000BF80BD180100209400002069
:1016FC009C000020480000200008014067666666D8
:10170C0080B500AFFFF7C6FE1B4B9B69012B30D198
:10171C001A4B1B68013B194A13606421062000F028
:10172C0087F9174B00221A60164B01221A60144BD2
:10173C001B68DBB21A464FF40051134800F0D9FD78
:10174C00104B1B68DBB21A464FF480410E4800F078
:10175C00D0FD0A4B1A680D4B83FB02139910D3175B
:10176C00C91A0B469B000B445B00D11A0846FFF7C5
:10177C00A7FA00BF80BD00BF180100209800002010
:10178C00A00000204C00002000080140676666663F
:10179C0080B500AF00F0ACFA00F038F800F0BEF8FD
:1017AC0000F070F8134801F001FA134B01221A6093
:1017BC00124B01221A60124B0A221A6064210A2071
:1017CC0000F036F92521082000F032F91B21092000
:1017DC0000F02EF90B4B9B6A012B08D14FF4806162
:1017EC00094800F09EFD64210A2000F021F9FEF763
:1017FC00D1FEEFE7A4000020840000208800002028
:10180C008C000020180100200008014080B590B029
:10181C0000AF07F1180328220021184601F076FDCD
:10182C003B1D00221A605A609A60DA601A6102232A
:10183C00BB610123BB621023FB6200237B6307F1B6
:10184C001803184600F086FD0346002B01D000F06B
:10185C00EAF80F237B600023BB600023FB600023AE
:10186C003B6100237B613B1D0021184600F0F2FF19
:10187C000346002B01D000F0D6F800BF4037BD4620
:10188C0080BD000080B586B000AF07F108030022D0
:10189C001A605A609A60DA603B4600221A605A60FD
:1018AC001D4B4FF080421A601B4B41F63F725A6041
:1018BC00194B00229A60184B0922DA60164B002251
:1018CC001A61154B00229A61134801F01FF9034667
:1018DC00002B01D000F0A7F84FF48053BB6007F148
:1018EC00080319460C4801F09DFA0346002B01D061
:1018FC0000F099F800233B6000237B603B461946BF
:10190C00054801F075FC0346002B01D000F08BF864
:10191C0000BF1837BD4680BDA400002080B586B03E
:10192C0000AF07F1080300221A605A609A60DA606F
:10193C00294B9B69284A43F004039361264B9B690E
:10194C0003F004037B607B68234B9B69224A43F0C2
:10195C0008039361204B9B6903F008033B603B68D1
:10196C00002247F67E411D4800F0C3FC00224FF6D2
:10197C00FF711B4800F0BDFC47F67E43BB600123A2
:10198C00FB6000233B6102237B6107F108031946CE
:10199C00124800F01DFB4FF46073BB600023FB602A
:1019AC0001233B6107F1080319460C4800F010FBBA
:1019BC004FF6FF73BB600123FB6000233B610223E6
:1019CC007B6107F108031946054800F001FB00BFD5
:1019DC001837BD4680BD00BF001002400008014012
:1019EC00000C014080B584B000AF78600023FB6030
:1019FC0005E0F86800F034F8FB680133FB60FB6825
:101A0C000A2BF6DD0023BB6005E0B868FEF7DEFBB1
:101A1C00BB680133BB60BB68022BF6DD00BF00BFA7
:101A2C001037BD4680BD80B400AF72B600BFFEE774
:101A3C0080B483B000AF7860396007497B683A683E
:101A4C0041F82320054A7B68002142F8231000BF8F
:101A5C000C37BD4680BC7047EC00002018010020FC
:101A6C0080B483B000AF78600F4A7B6852F82330A3
:101A7C00002B13DD0C4A7B6852F823305A1E0A499E
:101A8C007B6841F82320084A7B6852F82330002BEE
:101A9C0004DC064A7B68012142F8231000BF0C3796
:101AAC00BD4680BC704700BFEC0000201801002030
:101ABC0080B485B000AF154B9B69144A43F0010309
:101ACC009361124B9B6903F00103BB60BB680F4B26
:101ADC00DB690E4A43F08053D3610C4BDB6903F096
:101AEC0080537B607B680A4B5B68FB60FB6823F070
:101AFC00E063FB60FB6843F08063FB60044AFB68B7
:101B0C00536000BF1437BD4680BC704700100240C4
:101B1C000000014080B584B000AF78607B681B6822
:101B2C00B3F1804F13D10C4BDB690B4A43F001032B
:101B3C00D361094BDB6903F00103FB60FB680022F6
:101B4C0000211C2000F00DFA1C2000F026FA00BF2A
:101B5C001037BD4680BD00BF0010024080B400AFFE
:101B6C00FEE780B400AFFEE780B400AFFEE780B4C0
:101B7C0000AFFEE780B400AFFEE780B400AF00BF5B
:101B8C00BD4680BC704780B400AF00BFBD4680BC72
:101B9C00704780B400AF00BFBD4680BC704780B5B5
:101BAC0000AF00F0EBF800BF80BD000080B500AFC7
:101BBC00024801F047F800BF80BD00BFA400002020
:101BCC0080B400AF00BFBD4680BC704780B582B00A
:101BDC0000AF78607B68DBB21A460221034800F044
:101BEC0088FB00BF0837BD4680BD00BF0008014020
:101BFC0080B582B000AF78607B68DBB21A460421F6
:101C0C00034800F076FB00BF0837BD4680BD00BF1F
:101C1C000008014080B582B000AF78607B68DBB211
:101C2C001A460821034800F064FB00BF0837BD4684
:101C3C0080BD00BF0008014080B582B000AF786065
:101C4C007B68DBB21A461021034800F052FB00BF40
:101C5C000837BD4680BD00BF0008014080B582B08A
:101C6C0000AF78607B68DBB21A462021034800F095
:101C7C0040FB00BF0837BD4680BD00BF00080140D7
:101C8C0080B582B000AF78607B68DBB21A46402129
:101C9C00034800F02EFB00BF0837BD4680BD00BFD7
:101CAC0000080140FFF78CFF0B480C490C4A00233D
:101CBC0002E0D458C4500433C4188C42F9D3094AF6
:101CCC00094C002301E013600432A242FBD301F063
:101CDC00F9FAFFF75DFD7047000000205C00002062
:101CEC006C3300085C00002048010020FEE7000077
:101CFC0080B500AF084B1B68074A43F01003136014
:101D0C00032000F023F90F2000F008F8FFF7D0FEB5
:101D1C000023184680BD00BF0020024080B582B071
:101D2C0000AF7860124B1A68124B1B7819464FF4AF
:101D3C007A73B3FBF1F3B2FBF3F3184600F03BF903
:101D4C000346002B01D001230EE07B680F2B0AD831
:101D5C00002279684FF0FF3000F003F9064A7B68E7
:101D6C001360002300E0012318460837BD4680BDF0
:101D7C0050000020580000205400002080B400AF18
:101D8C00054B1B781A46054B1B681344034A13601A
:101D9C0000BFBD4680BC70475800002044010020A5
:101DAC0080B400AF024B1B681846BD4680BC704720
:101DBC004401002080B485B000AF78607B6803F0EC
:101DCC000703FB600C4BDB68BB60BA684FF6FF0384
:101DDC001340BB60FB681A02BB68134343F0BF633C
:101DEC0043F40033BB60044ABB68D36000BF1437B4
:101DFC00BD4680BC704700BF00ED00E080B400AF72
:101E0C00044BDB681B0A03F007031846BD4680BC75
:101E1C00704700BF00ED00E080B483B000AF034614
:101E2C00FB7197F90730002B0BDBFB7903F01F02DA
:101E3C00064997F907305B09012000FA02F241F8D4
:101E4C00232000BF0C37BD4680BC704700E100E08A
:101E5C0080B483B000AF03463960FB7197F907304B
:101E6C00002B0ADB3B68DAB20C4997F907301201F8
:101E7C00D2B20B4483F800230AE03B68DAB208497B
:101E8C00FB7903F00F03043B1201D2B20B441A7618
:101E9C0000BF0C37BD4680BC704700BF00E100E0BE
:101EAC0000ED00E080B489B000AFF860B9607A60F2
:101EBC00FB6803F00703FB61FB69C3F10703042B09
:101ECC0028BF0423BB61FB690433062B02D9FB69D1
:101EDC00033B00E000237B614FF0FF32BB6902FA49
:101EEC0003F3DA43BB681A407B699A404FF0FF3129
:101EFC007B6901FA03F3D9437B680B401343184603
:101F0C002437BD4680BC704780B582B000AF786086
:101F1C007B68013BB3F1807F01D301230FE00A4AB8
:101F2C007B68013B53600F214FF0FF30FFF790FFB0
:101F3C00054B00229A60044B07221A6000231846B6
:101F4C000837BD4680BD00BF10E000E080B582B010
:101F5C0000AF78607868FFF72DFF00BF0837BD46EB
:101F6C0080BD80B586B000AF0346B9607A60FB7364
:101F7C0000237B61FFF742FF78617A68B968786962
:101F8C00FFF790FF024697F90F3011461846FFF7FE
:101F9C005FFF00BF1837BD4680BD80B582B000AF73
:101FAC000346FB7197F907301846FFF735FF00BF62
:101FBC000837BD4680BD80B582B000AF78607868C8
:101FCC00FFF7A2FF034618460837BD4680BD000048
:101FDC0080B48BB000AF7860396000237B62002343
:101FEC003B6248E101227B6A02FA03F3FB613B6826
:101FFC001B68FA691340BB61BA69FB699A4240F0ED
:10200C0037813B685B68A34A93425ED0A14A9342F6
:10201C0075D8A14A934258D09F4A93426FD89F4A91
:10202C00934252D09D4A934269D89D4A93424CD0D8
:10203C009B4A934263D89B4A934246D0994A934217
:10204C005DD8122B2AD8122B59D801A252F823F0A2
:10205C00D7200008B1200008C32000080521000883
:10206C000B2100080B2100080B2100080B21000894
:10207C000B2100080B2100080B2100080B21000884
:10208C000B2100080B2100080B2100080B21000874
:10209C000B210008B9200008CD200008824A934289
:1020AC0013D02CE03B68DB683B6229E03B68DB68C3
:1020BC0004333B6224E03B68DB6808333B621FE07F
:1020CC003B68DB680C333B621AE03B689B68002B77
:1020DC0002D104233B6213E03B689B68012B05D1C2
:1020EC0008233B627B68FA691A6109E008233B62AA
:1020FC007B68FA695A6103E000233B6200E000BF91
:10210C00BB69FF2B01D87B6801E07B6804337B61E2
:10211C00BB69FF2B02D87B6A9B0002E07B6A083B01
:10212C009B003B617B691A680F213B6901FA03F341
:10213C00DB431A40396A3B6901FA03F31A437B69A2
:10214C001A603B685B6803F08053002B00F09080B2
:10215C00564B9B69554A43F001039361534B9B6962
:10216C0003F00103BB60BB68514A7B6A9B080233D6
:10217C0052F82330FB607B6A03F003039B000F22B1
:10218C0002FA03F3DB43FA681340FB607B68494AAD
:10219C0093420DD07B68484A934207D07B68474AEC
:1021AC00934201D1022304E0032302E0012300E067
:1021BC0000237A6A02F0030292009340FA681343F8
:1021CC00FB603B497B6A9B080233FA6841F8232089
:1021DC003B685B6803F48013002B06D0384B9A687D
:1021EC003749BB6913438B6006E0354B9A68BB6972
:1021FC00DB43334913408B603B685B6803F400138B
:10220C00002B06D02E4BDA682D49BB691343CB60EB
:10221C0006E02B4BDA68BB69DB4329491340CB60E2
:10222C003B685B6803F40033002B06D0244B5A68E0
:10223C002349BB6913434B6006E0214B5A68BB69C9
:10224C00DB431F4913404B603B685B6803F48033EE
:10225C00002B06D01A4B1A681949BB6913430B6043
:10226C0006E0174B1A68BB69DB43154913400B603A
:10227C007B6A01337B623B681A687B6A22FA03F340
:10228C00002B7FF4AFAE00BF00BF2C37BD4680BC27
:10229C00704700BF00003210000031100000221007
:1022AC00000021100000121000001110001002405C
:1022BC000000014000080140000C014000100140EA
:1022CC000004014080B485B000AF78600B467B8081
:1022DC007B689A687B881340002B02D00123FB7328
:1022EC0001E00023FB73FB7B18461437BD4680BC12
:1022FC00704780B483B000AF78600B467B80134688
:10230C007B707B78002B03D07A887B681A6103E0A2
:10231C007B881A047B681A6100BF0C37BD4680BCF1
:10232C00704780B485B000AF78600B467B807B68CB
:10233C00DB68FB607A88FB6813401A04FB68D9439E
:10234C007B880B401A437B681A6100BF1437BD466B
:10235C0080BC704780B586B000AF78607B68002B7E
:10236C0001D101236CE27B681B6803F00103002B95
:10237C0000F08780924B5B6803F00C03042B0CD0AD
:10238C008F4B5B6803F00C03082B12D18C4B5B68F2
:10239C0003F48033B3F5803F0BD1894B1B6803F4F6
:1023AC000033002B6CD07B685B68002B68D1012359
:1023BC0046E27B685B68B3F5803F06D1804B1B68B7
:1023CC007F4A43F4803313602EE07B685B68002BFC
:1023DC000CD17B4B1B687A4A23F480331360784B07
:1023EC001B68774A23F4802313601DE07B685B68CD
:1023FC00B3F5A02F0CD1724B1B68714A43F48023A8
:10240C0013606F4B1B686E4A43F4803313600BE010
:10241C006B4B1B686A4A23F480331360684B1B6850
:10242C00674A23F4802313607B685B68002B13D00E
:10243C00FFF7B6FC386108E0FFF7B2FC02463B69D7
:10244C00D31A642B01D90323FAE15D4B1B6803F407
:10245C000033002BF0D014E0FFF7A2FC386108E049
:10246C00FFF79EFC02463B69D31A642B01D9032368
:10247C00E6E1534B1B6803F40033002BF0D100E072
:10248C0000BF7B681B6803F00203002B63D04C4B2E
:10249C005B6803F00C03002B0BD0494B5B6803F01B
:1024AC000C03082B1CD1464B5B6803F48033002BC8
:1024BC0016D1434B1B6803F00203002B05D07B683D
:1024CC001B69012B01D00123BAE13D4B1B6823F0A2
:1024DC00F8027B685B69DB00394913430B603AE017
:1024EC007B681B69002B20D0364B01221A60FFF74A
:1024FC0057FC386108E0FFF753FC02463B69D31ADE
:10250C00022B01D903239BE12D4B1B6803F0020323
:10251C00002BF0D02A4B1B6823F0F8027B685B6918
:10252C00DB00274913430B6015E0264B00221A6091
:10253C00FFF736FC386108E0FFF732FC02463B69D6
:10254C00D31A022B01D903237AE11D4B1B6803F02C
:10255C000203002BF0D17B681B6803F00803002BEF
:10256C003AD07B689B69002B19D0174B01221A605B
:10257C00FFF716FC386108E0FFF712FC02463B69D6
:10258C00D31A022B01D903235AE10D4B5B6A03F0DA
:10259C000203002BF0D0012000F09AFA1CE00A4B49
:1025AC0000221A60FFF7FCFB38610FE0FFF7F8FB25
:1025BC0002463B69D31A022B08D9032340E100BF22
:1025CC000010024000004242800442429E4B5B6A73
:1025DC0003F00203002BE9D17B681B6803F00403B2
:1025EC00002B00F0A6800023FB75974BDB6903F0F2
:1025FC008053002B0DD1944BDB69934A43F08053ED
:10260C00D361914BDB6903F08053BB60BB68012342
:10261C00FB758E4B1B6803F48073002B18D18B4B0E
:10262C001B688A4A43F480731360FFF7B9FB386167
:10263C0008E0FFF7B5FB02463B69D31A642B01D9BE
:10264C000323FDE0814B1B6803F48073002BF0D057
:10265C007B68DB68012B06D17B4B1B6A7A4A43F003
:10266C00010313622DE07B68DB68002B0CD1764BE9
:10267C001B6A754A23F001031362734B1B6A724A7F
:10268C0023F0040313621CE07B68DB68052B0CD180
:10269C006D4B1B6A6C4A43F0040313626A4B1B6A52
:1026AC00694A43F0010313620BE0674B1B6A664AED
:1026BC0023F001031362644B1B6A634A23F0040387
:1026CC0013627B68DB68002B15D0FFF769FB386160
:1026DC000AE0FFF765FB02463B69D31A41F28832E8
:1026EC00934201D90323ABE0574B1B6A03F002035F
:1026FC00002BEED014E0FFF753FB38610AE0FFF734
:10270C004FFB02463B69D31A41F28832934201D9FE
:10271C00032395E04C4B1B6A03F00203002BEED114
:10272C00FB7D012B05D1484BDB69474A23F08053D5
:10273C00D3617B68DB69002B00F08180424B5B68C6
:10274C0003F00C03082B61D07B68DB69022B46D1AC
:10275C003F4B00221A60FFF723FB386108E0FFF7BC
:10276C001FFB02463B69D31A022B01D9032367E0F6
:10277C00354B1B6803F00073002BF0D17B681B6A90
:10278C00B3F5803F08D1304B5B6823F400327B6893
:10279C009B682D4913434B602B4B5B6823F47412DD
:1027AC007B68196A7B685B6A0B43274913434B6050
:1027BC00274B01221A60FFF7F3FA386108E0FFF7A4
:1027CC00EFFA02463B69D31A022B01D9032337E0F7
:1027DC001D4B1B6803F00073002BF0D02FE01C4B3B
:1027EC0000221A60FFF7DCFA386108E0FFF7D8FA2C
:1027FC0002463B69D31A022B01D9032320E0124B6A
:10280C001B6803F00073002BF0D118E07B68DB69C8
:10281C00012B01D1012313E00B4B5B68FB60FB68C0
:10282C0003F480327B681B6A9A4206D1FB6803F47E
:10283C0070127B685B6A9A4201D0012300E000238E
:10284C0018461837BD4680BD00100240007000408D
:10285C006000424280B584B000AF786039607B681C
:10286C00002B01D10123D0E06A4B1B6803F0070356
:10287C003A689A4210D9674B1B6823F007026549E6
:10288C003B6813430B60634B1B6803F007033A6808
:10289C009A4201D00123B8E07B681B6803F0020365
:1028AC00002B20D07B681B6803F00403002B05D0A1
:1028BC00594B5B68584A43F4E06353607B681B6870
:1028CC0003F00803002B05D0534B5B68524A43F4CA
:1028DC0060535360504B5B6823F0F0027B689B683D
:1028EC004D4913434B607B681B6803F00103002BBD
:1028FC0040D07B685B68012B07D1474B1B6803F406
:10290C000033002B15D101237FE07B685B68022B21
:10291C0007D1414B1B6803F00073002B09D1012335
:10292C0073E03D4B1B6803F00203002B01D1012324
:10293C006BE0394B5B6823F003027B685B683649BC
:10294C0013434B60FFF72CFAF8600AE0FFF728FA04
:10295C000246FB68D31A41F28832934201D9032311
:10296C0053E02D4B5B6803F00C027B685B689B00AB
:10297C009A42EBD1274B1B6803F007033A689A4243
:10298C0010D2244B1B6823F0070222493B681343E7
:10299C000B60204B1B6803F007033A689A4201D086
:1029AC00012332E07B681B6803F00403002B08D082
:1029BC00194B5B6823F4E0627B68DB6816491343B0
:1029CC004B607B681B6803F00803002B09D0124B8B
:1029DC005B6823F460527B681B69DB000E49134370
:1029EC004B6000F021F802460B4B5B681B0903F0AF
:1029FC000F030A49CB5C22FA03F3094A1360094B13
:102A0C001B681846FFF78AF9002318461037BD4695
:102A1C0080BD00BF0020024000100240403300087F
:102A2C00500000205400002080B487B000AF002379
:102A3C00FB600023BB6000237B6100237B600023D1
:102A4C003B611E4B5B68FB60FB6803F00C03042BC3
:102A5C0002D0082B03D027E0194B3B6127E0FB6821
:102A6C009B0C03F00F03174AD35C7B60FB6803F4E9
:102A7C008033002B10D0114B5B685B0C03F001030F
:102A8C00114AD35CBB607B680D4A02FB03F2BB6846
:102A9C00B2FBF3F37B6104E07B680C4A02FB03F3AB
:102AAC007B617B693B6102E0054B3B6100BF3B698D
:102ABC0018461C37BD4680BC704700BF0010024052
:102ACC0000127A00503300086033000800093D0002
:102ADC0080B485B000AF78600A4B1B680A4AA2FB31
:102AEC0003235B0A7A6802FB03F3FB6000BFFB68FD
:102AFC005A1EFA60002BF9D100BF00BF1437BD4637
:102B0C0080BC704750000020D34D621080B582B05D
:102B1C0000AF78607B68002B01D1012341E07B681A
:102B2C0093F83D30DBB2002B06D17B68002283F892
:102B3C003C207868FEF7EEFF7B68022283F83D208C
:102B4C007B681A687B6804331946104600F056FA05
:102B5C007B68012283F846207B68012283F83E20A3
:102B6C007B68012283F83F207B68012283F8402098
:102B7C007B68012283F841207B68012283F8422084
:102B8C007B68012283F843207B68012283F8442070
:102B9C007B68012283F845207B68012283F83D2065
:102BAC00002318460837BD4680BD000080B485B0B0
:102BBC0000AF78607B6893F83D30DBB2012B01D01D
:102BCC00012335E07B68022283F83D207B681B687B
:102BDC00DA687B681B6842F00102DA607B681B686C
:102BEC00164A934209D07B681B68B3F1804F04D01E
:102BFC007B681B68124A934211D17B681B689B68E7
:102C0C0003F00703FB60FB68062B10D07B681B6886
:102C1C001A687B681B6842F001021A6007E07B6847
:102C2C001B681A687B681B6842F001021A6000235B
:102C3C0018461437BD4680BC704700BF002C0140BD
:102C4C000004004080B584B000AF78607B681B68DE
:102C5C00DB68FB607B681B681B69BB60BB6803F0AF
:102C6C000203002B20D0FB6803F00203002B1BD0C7
:102C7C007B681B686FF002021A617B6801221A776D
:102C8C007B681B689B6903F00303002B03D07868F7
:102C9C0000F098F905E0786800F08BF9786800F09E
:102CAC009AF97B6800221A77BB6803F00403002BA7
:102CBC0020D0FB6803F00403002B1BD07B681B683F
:102CCC006FF004021A617B6802221A777B681B681A
:102CDC009B6903F44073002B03D0786800F072F901
:102CEC0005E0786800F065F9786800F074F97B68A5
:102CFC0000221A77BB6803F00803002B20D0FB6876
:102D0C0003F00803002B1BD07B681B686FF00802D4
:102D1C001A617B6804221A777B681B68DB6903F0F5
:102D2C000303002B03D0786800F04CF905E07868B9
:102D3C0000F03FF9786800F04EF97B6800221A77B2
:102D4C00BB6803F01003002B20D0FB6803F01003CA
:102D5C00002B1BD07B681B686FF010021A617B681C
:102D6C0008221A777B681B68DB6903F44073002B1D
:102D7C0003D0786800F026F905E0786800F019F9BE
:102D8C00786800F028F97B6800221A77BB6803F09A
:102D9C000103002B0CD0FB6803F00103002B07D0C0
:102DAC007B681B686FF001021A617868FEF71AFEE7
:102DBC00BB6803F08003002B0CD0FB6803F080038E
:102DCC00002B07D07B681B686FF080021A61786853
:102DDC0000F06FFABB6803F04003002B0CD0FB68CB
:102DEC0003F04003002B07D07B681B686FF0400298
:102DFC001A61786800F0F8F8BB6803F02003002B28
:102E0C000CD0FB6803F02003002B07D07B681B68F9
:102E1C006FF020021A61786800F042FA00BF103798
:102E2C00BD4680BD80B584B000AF786039600023AA
:102E3C00FB737B6893F83C30012B01D10223B4E087
:102E4C007B68012283F83C207B68022283F83D20BA
:102E5C007B681B689B68BB60BB6823F07703BB6017
:102E6C00BB6823F47F43BB607B681B68BA689A60BD
:102E7C003B681B68B3F5005F3ED0B3F5005F00F212
:102E8C008780B3F5805F00F08680B3F5805F7FD8D4
:102E9C00702B1AD0702B7BD8602B50D0602B77D82E
:102EAC00502B3CD0502B73D8402B58D0402B6FD884
:102EBC00302B64D0302B6BD8202B60D0202B67D8D4
:102ECC00002B5CD0102B5AD062E07B6818683B68F2
:102EDC0099683B685A683B68DB6800F06AF97B6864
:102EEC001B689B68BB60BB6843F07703BB607B6867
:102EFC001B68BA689A604FE07B6818683B689968F1
:102F0C003B685A683B68DB6800F053F97B681B68C8
:102F1C009A687B681B6842F480429A603CE07B684C
:102F2C0018683B6859683B68DB681A4600F0CAF8B9
:102F3C007B681B685021184600F021F92CE07B6857
:102F4C0018683B6859683B68DB681A4600F0E8F87B
:102F5C007B681B686021184600F011F91CE07B6847
:102F6C0018683B6859683B68DB681A4600F0AAF899
:102F7C007B681B684021184600F001F90CE07B6867
:102F8C001A683B681B681946104600F0F8F803E015
:102F9C000123FB7300E000BF7B68012283F83D2016
:102FAC007B68002283F83C20FB7B18461037BD461B
:102FBC0080BD80B483B000AF786000BF0C37BD46D5
:102FCC0080BC704780B483B000AF786000BF0C3712
:102FDC00BD4680BC704780B483B000AF786000BF42
:102FEC000C37BD4680BC704780B483B000AF7860AE
:102FFC0000BF0C37BD4680BC7047000080B485B064
:10300C0000AF786039607B681B68FB607B682B4A7B
:10301C00934207D07B68B3F1804F03D07B68284A7A
:10302C00934208D1FB6823F07003FB603B685B683C
:10303C00FA681343FB607B68204A934207D07B6895
:10304C00B3F1804F03D07B681D4A934208D1FB68D3
:10305C0023F44073FB603B68DB68FA681343FB6046
:10306C00FB6823F080023B685B691343FB607B6861
:10307C00FA681A603B689A687B68DA623B681A687F
:10308C007B689A627B680D4A934203D13B681A694C
:10309C007B681A637B6801225A617B681B6903F0A9
:1030AC000103002B05D07B681B6923F001027B68B0
:1030BC001A6100BF1437BD4680BC7047002C01401C
:1030CC000004004080B487B000AFF860B9607A604B
:1030DC00FB681B6A7B61FB681B6A23F00102FB68BF
:1030EC001A62FB689B693B613B6923F0F0033B610F
:1030FC007B681B013A6913433B617B6923F00A032C
:10310C007B617A69BB6813437B61FB683A699A619E
:10311C00FB687A691A6200BF1C37BD4680BC7047D9
:10312C0080B487B000AFF860B9607A60FB681B6A46
:10313C007B61FB681B6A23F01002FB681A62FB6858
:10314C009B693B613B6923F470433B617B681B03C8
:10315C003A6913433B617B6923F0A0037B61BB6835
:10316C001B017A6913437B61FB683A699A61FB68BE
:10317C007A691A6200BF1C37BD4680BC704780B4A8
:10318C0085B000AF786039607B689B68FB60FB683A
:10319C0023F07003FB603A68FB68134343F00703AA
:1031AC00FB607B68FA689A6000BF1437BD4680BC30
:1031BC00704780B487B000AFF860B9607A603B604C
:1031CC00FB689B687B617B6923F47F437B613B6875
:1031DC001A027B681A43BB6813437A6913437B61F9
:1031EC00FB687A699A6000BF1C37BD4680BC70478B
:1031FC0080B485B000AF786039607B6893F83C3060
:10320C00012B01D1022341E07B68012283F83C2091
:10321C007B68022283F83D207B681B685B68FB603F
:10322C007B681B689B68BB60FB6823F07003FB60CA
:10323C003B681B68FA681343FB607B681B68FA6881
:10324C005A607B681B68144A934209D07B681B68E0
:10325C00B3F1804F04D07B681B68104A93420CD1A9
:10326C00BB6823F08003BB603B685B68BA681343A0
:10327C00BB607B681B68BA689A607B68012283F824
:10328C003D207B68002283F83C200023184614372D
:10329C00BD4680BC704700BF002C014000040040BC
:1032AC0080B483B000AF786000BF0C37BD4680BCE3
:1032BC00704780B483B000AF786000BF0C37BD4658
:1032CC0080BC704770B500260C4D0D4C641BA410CF
:1032DC00A64209D100F022F800260A4D0A4C641BC4
:1032EC00A410A64205D170BD55F8043B9847013691
:1032FC00EEE755F8043B98470136F2E764330008D3
:10330C006433000864330008683300080346024441
:10331C00934200D1704703F8011BF9E7F8B500BFE1
:10332C00F8BC08BC9E467047F8B500BFF8BC08BC9A
:04333C009E467047F2
:103340000000000000000000010203040607080955
:1033500002030405060708090A0B0C0D0E0F1010D6
:043360000102000066
:04336400310100082B
:043368000D0100084B
:10336C00010000000000000000000000010000004F
:10337C000000000000000000010000000000000040
:10338C000000000001000000000000000000000030
:10339C00F4010000C80000002C0100000100000036
:1033AC00010000000100000001000000010000000D
:0C33BC0000127A00100000000100000068
:0400000508001CB122
:00000001FF
